:020000040800F2
:10000000D0060020650100088B0100088D01000862
:1000100000000000000000000000000000000000E0
:100020000000000000000000000000008F01000838
:10003000000000000000000091010008930100088A
:100040009501000895010008950100089501000838
:100050009501000895010008950100089501000828
:100060009501000895010008950100089501000818
:10007000A1030008950100089501000895010008FA
:100080009501000800000000000000005D1100085C
:100090000000000095010008A1110008950100086A
:1000A0000000000095010008950100089501000876
:1000B0009501000800000000FD0B000895010008F4
:1000C00000F002F800F03EF80CA030C80838241800
:1000D0002D18A246671EAB4654465D46AC4201D180
:1000E00000F030F87E460F3E0FCCB6460126334274
:1000F00000D0FB1AA246AB46334318473412000027
:1001000054120000103A02D378C878C1FAD85207C6
:1001100001D330C830C101D504680C6070470000BD
:100120000023002400250026103A01D378C1FBD813
:10013000520700D330C100D50B6070471FB51FBDFB
:1001400010B510BD00F0F8F81146FFF7F7FF01F009
:10015000A7F800F010F903B4FFF7F2FF03BC00F0BA
:1001600017F900000F4880F308880F480168090E4E
:100170000E4A914205D10E480E4901600E480F49C2
:1001800001600F4880470F480047FEE7FEE7FEE7A3
:10019000FEE7FEE7FEE700000B480C490C4A0D4B5A
:1001A00070470000D0060020040000001F0000007F
:1001B0001810024001000000000001400000000093
:1001C000FD100008C1000008D0000020D00600206B
:1001D000D0020020D0020020002203098B422CD341
:1001E000030A8B4211D300239C464EE003460B4387
:1001F0003CD4002243088B4231D303098B421CD3E9
:10020000030A8B4201D394463FE0C3098B4201D3DA
:10021000CB01C01A524183098B4201D38B01C01A12
:10022000524143098B4201D34B01C01A5241030989
:100230008B4201D30B01C01A5241C3088B4201D338
:10024000CB00C01A524183088B4201D38B00C01AE5
:10025000524143088B4201D34B00C01A5241411A0C
:1002600000D201465241104670475DE0CA0F00D0EF
:100270004942031000D34042534000229C460309E8
:100280008B422DD3030A8B4212D3FC22890112BA6E
:10029000030A8B420CD3890192118B4208D3890146
:1002A00092118B4204D389013AD0921100E089095E
:1002B000C3098B4201D3CB01C01A524183098B423F
:1002C00001D38B01C01A524143098B4201D34B0128
:1002D000C01A524103098B4201D30B01C01A52418B
:1002E000C3088B4201D3CB00C01A524183088B4212
:1002F00001D38B00C01A5241D9D243088B4201D39B
:100300004B00C01A5241411A00D201466346524185
:100310005B10104601D34042002B00D54942704784
:1003200063465B1000D3404201B50020C046C04682
:1003300002BD704770477047754600F025F8AE461D
:10034000050069465346C008C000854618B020B570
:10035000FFF722FF60BC00274908B6460026C0C54B
:10036000C0C5C0C5C0C5C0C5C0C5C0C5C0C5403D6D
:1003700049008D46704710B50446C046C046204629
:10038000FFF7E9FE10BD0000004870476C00002038
:1003900001491820ABBEFEE72600020070470000AE
:1003A000F8B5A44C0421204600F09CF9002803D0A5
:1003B0000421204600F063F99E48403001689E4BBE
:1003C0001888081800B218809C4C2178491C49B242
:1003D00021709B4A082910D100252570C117490FAB
:1003E0000818C01001B21D80505F8300181A401811
:1003F000C117890F081880101080924B0026002525
:10040000914F965F5D5F0021795E701B4143CA1773
:10041000520D5118CC12002C00DA0024082C00DDFB
:1004200008248A4900228A5E5043C117090E081821
:100430000012874940B20870002801DA00200870D5
:1004400000200856642801DD64200870814A108A63
:100450008149000702D40878401C08707D48008A52
:10046000000749D57C487E4902787C483C2A1ED941
:100470000E80AE4204D0711BFFF7B8FE388000E05A
:100480003880AE4207D01920711B8002FFF7AEFE04
:100490006E49088003E019216C488902018000F050
:1004A000B5FE00F0D5FE6F498020087021E00C2ACF
:1004B0001FD91E8000254D5FB54204D0A91BFFF750
:1004C00095FE388000E03880B54207D01920A91B7E
:1004D0008002FFF78BFE5D49088003E019205B492D
:1004E0008002088000F092FE00F0B2FE5D4980209C
:1004F00008705948002101705A490878002811D025
:10050000020602D4401E087009E0401CC0B2087008
:100510000207120F082A02D14006400E0870087820
:100520000407240F0920C006002C70D008210646BD
:1005300000F0C8FB4C4D0020287004E028784100F2
:10054000491C2970641E002CF8D12878C00704D0FB
:100550001021304600F0B8FB03E01021304600F0D7
:10056000B1FB2878800704D52021304600F0ACFB91
:1005700003E02021304600F0A5FB2878400704D591
:100580004021304600F0A0FB03E04021304600F05F
:1005900099FB2878000704D58021304600F094FBB1
:1005A00003E08021304600F08DFB2878C00604D59A
:1005B0001021284800F088FB03E01021254800F0B6
:1005C00081FB2878800604D52021224800F07CFB9E
:1005D00003E020211F4800F075FB2878400604D571
:1005E00040211C4800F070FB03E04021194800F056
:1005F00069FB2878000604D58021164800F064FBCA
:10060000F8BD8021134800F05DFBF8BDFFE7174AF5
:10061000F02111810F4A20321181154909780029F2
:1006200003D0082100F050FBEFE7082100F04AFB5F
:10063000EBE70000002401400A0000201500002024
:10064000000000200200002006000020080000201A
:10065000140000200004004811000020F8430000AE
:1006600004000020120000200C00002020000048A0
:1006700010000020836A0B4383624261704701606F
:100680007047002904D081680122114381607047BE
:100690008168022211438160704700218268012332
:1006A000DB071A4382600F231B038268D20FD20735
:1006B000491C994201D0002AF7D18168002901DB49
:1006C000006C70470020704702460020CB0104D523
:1006D000926801231B069A4300E012680A4200D088
:1006E000012070470246002053680B4012680A42FE
:1006F00002D0002B00D001207047002A03D04268AE
:100700000A434260704742688A4342607047000073
:1007100030B5C268084B1A408C680B680D792343CA
:10072000CC686D032C4323430C69496923430B4375
:100730001343C36030BD000003D2FFFF8168042271
:100740001143816070470021016001718160C160C7
:100750000161416170470000F0B5012676028A1BF5
:10076000082410250423B14239D011DC202930D0CF
:1007700007DC012928D0042929D0082900D1C56027
:10078000F0BD402927D0FF390139F9D14360F0BDD0
:100790003F214902571A00268A4224D00ADCFF3A38
:1007A000FF3A023A1DD0012189028A42EFD18661C7
:1007B0004360F0BD0121C903791A0ED00122120451
:1007C0009142F6D14560F0BD08498160F0BDC4603A
:1007D000F0BD0461F0BD0561F0BD4460F0BD436053
:1007E000F0BD4360F0BD86614360F0BD01010100D2
:1007F00010B501214C06204600F018FC00212046CF
:1008000000F014FC10BD000010B5827A01231946D7
:1008100091402A4A14681C431460D3698B43D36106
:10082000037B002B12D1D3688B43D360C3884488E9
:100830001B042343847AE400A41823648388048877
:100840001B042343847AE400A4186364037B012B14
:1008500012D1D3680B43D360038844881B0423431D
:10086000847AE400A41823648388C4881B04234387
:10087000847AE400A4186364C37A002B06D053681A
:100880000B4353600389002B04D006E053688B436D
:100890005360F7E753698B4353610389012B02D1FE
:1008A00053690B435361407B012802D1D06908434F
:1008B000D061106840084000106010BD0066004024
:1008C00010B50246002053690B4212D0FF240134B8
:1008D0000B1BA1425AD018DC082943D00ADC01299D
:1008E00036D0022939D0042903D1D068082100F07C
:1008F0009BF910BD10293AD020293DD04029F8D1CC
:100900001069102100F090F910BD7F2109025C1AD6
:100910008B424AD00FDCFF3B013B3CD0FF3BFF3B0F
:10092000023B3DD0012189028B42EDD190697021BB
:1009300000F07AF910BD0121C903611A21D0012309
:100940001B049942F6D15068102100F06DF910BDDA
:100950009068184900F068F910BDD068032100F0D4
:1009600063F910BDD068102100F05EF910BD106968
:10097000032100F059F910BD1069082100F054F965
:1009800010BD5068082100F04FF910BD9069012199
:1009900000F04AF910BD9069022100F045F910BD40
:1009A0009069042100F040F910BD5068042100F066
:1009B0003BF910BD0101010080694006400F0001B4
:1009C0007047002A03D042690A4342617047426976
:1009D0008A4342617047000010B500220368022478
:1009E000A34303600368012423430360384B00E002
:1009F000521C4468E40701D19A42F9D14268D207F7
:100A00003ED08C798022012C3CD004689443046051
:100A1000CC794022012C39D00468944304600C7ACC
:100A20002022012C36D00468944304604C7A1022B2
:100A3000012C33D00468944304608C7A0822012C82
:100A400030D0046894430460CC7A0422012C2DD069
:100A50000468944304608A78CC7892072406224381
:100A60000C79240422434C79098824052243491E29
:100A70000A43C261016849084900016000211AE087
:100A8000002010BD046814430460C1E704681443E7
:100A90000460C4E7046814430460C7E704681443AF
:100AA0000460CAE7046814430460CDE70468144393
:100AB0000460D0E7491C4268D20701D09942F9D1BD
:100AC0004068C00701D0002010BD012010BD00000B
:100AD000FFFFFF0030B50B011B18FF3381331C6B88
:100AE00004252C401472002C2AD01C6BE40854609E
:100AF0001C6B02252C4054725C6B2407240F9472EB
:100B00005C6B240AD4749C6BD4729C6B240A14739F
:100B10009C6B240C54739C6B240E9473DC6BD47309
:100B2000DC6B240A1474DC6B240C5474DB6B1B0E1A
:100B300093742022002907D001691143016130BD5F
:100B40001C6B640D1460D3E7C1681143C16030BDF4
:100B500030B50246002093685B010AD4906800011A
:100B600001D5012005E09068C00001D5022000E019
:100B70000420042838D003019A18FF328132136808
:100B8000DB07DB0F13600B7A002B2ED014684D6847
:100B90001C434B7AED002B431C4314608B7A1B07DC
:100BA0001B0F8B7253681B091B01536053688C7AAF
:100BB000234353608C7BCB7A240623434C7B0D7BF1
:100BC00024042D022C43234393608C7CCB7B24068E
:100BD00023434C7C097C240409020C432343D36047
:100BE000116801231943116030BD13684C7A234307
:100BF0000C88640523431360D0E7000010B586B06D
:100C0000084C02212046FFF75BFE002803D002219A
:100C10002046FFF7A1FD01AA00212046FFF75AFF59
:100C200006B010BD00640040024600200A4200D019
:100C300001207047F0B500220325012393400C6882
:100C40001C409C422AD10C79012C01D0022C12D1DB
:100C5000876854002E46A640B74387604E79A64069
:100C600084682643866084889C43848084888B794A
:100C700093401C438480066853002C469C40A64346
:100C800006600E7907689E403E430660C668A6432C
:100C9000C660CC799C40C3681C43C460521C102AB7
:100CA000CBD3F0BD10B54B07DB0E9A40C9088900C5
:100CB0000818016A0F249C40A1430162016A114394
:100CC000016210BD01857047816170470449016070
:100CD00000210171012242718171C17170470000D0
:100CE000FFFF00000249014808607047CCCC0000BB
:100CF000003000400249014808607047AAAA00007D
:100D0000003000400149486070470000003000405A
:100D100001498860704700000030004001490860C8
:100D2000704700000030004010B51748FFF70BFD7A
:100D3000154908200860154C2046FFF7E9FC0722FA
:100D400004212046FFF796FC2046FFF7A6FC01226F
:100D500004212046FFF7D1FC0D490C20087000202B
:100D6000487001208870084600F01CF901212046D7
:100D7000FFF787FC01212046FFF7A6FC0028F9D0E9
:100D80002046FFF7DBFC10BD54000020002401408A
:100D900020000020F8B5214C2046FFF729FD20490E
:100DA00000258D71CD710D724D728D72CD728D7069
:100DB000CD700720087106224A710A802046FFF78D
:100DC0000BFE012202212046FFF7FBFD154CA57208
:100DD000E572012626730520000220806580FF272A
:100DE0007F01A780E580258166732046FFF70CFD13
:100DF000A672E5722673B00220806580A780E58028
:100E0000258166732046FFF7FFFC07481E2101700D
:100E10004670867000F0C6F8F8BD0000006400401F
:100E2000380000204400002020000020F8B52148B0
:100E3000FFF74CFF1F4C0320207104202060002589
:100E4000657109202146C006FFF7F4FE25710820D0
:100E5000206065710126E671174F21463846FFF77D
:100E6000E9FE2671F82020606571E57109202146B0
:100E7000C006FFF7DFFEF020206021463846FFF76E
:100E8000D9FE022020710320C00220606571E67146
:100E900009202146C006FFF7CDFE092004220B21C0
:100EA000C006FFF7FFFE092004220C21C006FFF751
:100EB000F9FEF8BD180000200004004810B5FFF747
:100EC00011FF0848FFF72AFF0320FFF71BFF7D20D3
:100ED000C000FFF71DFF0448C1680029FCD1FFF7DF
:100EE00009FF10BD555500000030004070B50121CC
:100EF0004C04204600F07EF801218D04284600F0C5
:100F000079F80121022000F083F80121080200F0A5
:100F10007FF80121480600F07BF80121480200F02B
:100F200093F80121204600F08FF80121284600F0B7
:100F30008BF870BD70B517491548088115481649DA
:100F40002038C162818901242143818101882143A4
:100F500001801249EF2008817D2110484901203885
:100F6000C1628189214381810188214301800C4D27
:100F7000132028706C70AC70284600F013F816200F
:100F800028706C70AC70284600F00CF870BD000042
:100F90005F09000020200040381800002048014070
:100FA0002000002030B5827801240178002A16D074
:100FB0008B080E4A9B009A1813688907C90EFF25F3
:100FC0008D40AB434578AD072D0E8D401D43156018
:100FD0000078C006C00E84400548046030BDC806D5
:100FE000C00E844002488030046030BD00E400E060
:100FF00000E100E0054A002903D051690143516135
:1010000070475169814351617047000000100240F0
:10101000054A002903D0D1690143D1617047D169E4
:101020008143D1617047000000100240054A002949
:1010300003D0116901431161704711698143116146
:101040007047000000100240054A002903D0916952
:10105000014391617047916981439161704700003C
:10106000001002403CB50023019300932148016821
:101070000124240421430160610005252D03026839
:101080000A400092019A521C0192009A002A02D151
:10109000019AAA42F3D10168890302D50121009186
:1010A00000E000930099012923D1134A1121116016
:1010B000416841604168416041687F22D2039143A9
:1010C00041604168214341600168012212061143D9
:1010D000016001688901FCD5416889088900416087
:1010E000416802221143416041680907890F0229C2
:1010F000FAD13CBD001002400020024010B5144857
:1011000001680122114301604168124A11404160A7
:101110000168114A11400160016801229204914363
:10112000016041683F22120491434160C16A09098C
:101130000901C162016BFF22543291430163416B8B
:1011400049084900416300218160FFF78BFF10BD12
:10115000001002400CB8FFF8FFFFF6FE0B48018AB2
:101160004908490001820A4900200870094A012003
:101170001378012B04D1087007490B7843400B709A
:10118000107006490A7842400A70704700200040FB
:101190000E0000200D0000200F0000201000002095
:1011A00010B51448018A490849000182FFF7A2FDE1
:1011B00011490122087850400870002815D00F48C6
:1011C0000021017218210160042181720C49097803
:1011D000C172FF210173417381730A4C014620469D
:1011E000FFF7B6FC2046FFF7E7FB0748FFF7A6FA34
:1011F00010BD000000480140130000202400002022
:1012000014000020006400400024014010B50E4886
:10121000C168C907FCD1C16820228906002900DA0B
:10122000C2600169022319430161084941610169F2
:10123000402421430161C168C907FCD1C260016932
:101240009943016110BD00000020024000780008B1
:1012500010B51048C168C907FCD1C16820228906B1
:10126000002900DAC26001690123194301610A4BB8
:101270000A4C19882180C1688906FCD5C26059884A
:10128000A180C1688906FCD5C2600169490849008E
:10129000016110BD0020024002000020007800081B
:1012A000E1201D4E80007080642030801C481B4966
:1012B00041601C4941601C4A1068411C00D03080CC
:1012C0005068411C00D0708002240025345F755F97
:1012D000AC4205D0611B1548FEF788FFB08002E0E4
:1012E00001208002B080AC4206D01920611B800230
:1012F000FEF77CFFF08001E08020F080FFF7DEFD4C
:10130000FFF7F4FDFFF792FDFFF70EFDFFF742FD3B
:10131000FFF710FEFEE700000200002023016745F2
:1013200000200240AB89EFCD00780008F8430000B0
:1013300050130008000000202400000004010008F1
:101340007413000824000020AC06000020010008EF
:10135000000000000000000000000000000000008D
:10136000000000000000000000000000000000007D
:041370000000000079
:040000050800016589
:00000001FF
